:02000000802E50
:02000300019B5F
:02000B0001BD35
:1000300075815F75A0FF7530007400F5A0758901AA
:10004000C290D288D2A8D2AF7531007532FB753319
:100050002F7534FA7535347536DB7537DE30B206F8
:10006000117F119280F7116C119280F1C2A9C28C9C
:10007000D29085328C85338AC231D2A9D28C22C2E9
:10008000A9C28CD29085348C85358AC231D2A9D24E
:100090008C227E147F85DFFEDEFA22C0E0C0D0789D
:1000A0000579FAD9FED8FA20B20E0530E530B40A47
:1000B000057530007400F5A0D0E0D0D032C28CC2FB
:1000C0008D20310DC29085368C85378AD231D28C05
:0600D00032C2A9C2313268
:00000001FF
